{
  "contractName": "Quiz",
  "abi": [
    {
      "constant": true,
      "inputs": [
        {
          "name": "interfaceId",
          "type": "bytes4"
        }
      ],
      "name": "supportsInterface",
      "outputs": [
        {
          "name": "",
          "type": "bool"
        }
      ],
      "payable": false,
      "stateMutability": "view",
      "type": "function"
    },
    {
      "constant": true,
      "inputs": [
        {
          "name": "tokenId",
          "type": "uint256"
        }
      ],
      "name": "getApproved",
      "outputs": [
        {
          "name": "",
          "type": "address"
        }
      ],
      "payable": false,
      "stateMutability": "view",
      "type": "function"
    },
    {
      "constant": false,
      "inputs": [
        {
          "name": "to",
          "type": "address"
        },
        {
          "name": "tokenId",
          "type": "uint256"
        }
      ],
      "name": "approve",
      "outputs": [],
      "payable": false,
      "stateMutability": "nonpayable",
      "type": "function"
    },
    {
      "constant": false,
      "inputs": [
        {
          "name": "from",
          "type": "address"
        },
        {
          "name": "to",
          "type": "address"
        },
        {
          "name": "tokenId",
          "type": "uint256"
        }
      ],
      "name": "transferFrom",
      "outputs": [],
      "payable": false,
      "stateMutability": "nonpayable",
      "type": "function"
    },
    {
      "constant": false,
      "inputs": [
        {
          "name": "from",
          "type": "address"
        },
        {
          "name": "to",
          "type": "address"
        },
        {
          "name": "tokenId",
          "type": "uint256"
        }
      ],
      "name": "safeTransferFrom",
      "outputs": [],
      "payable": false,
      "stateMutability": "nonpayable",
      "type": "function"
    },
    {
      "constant": true,
      "inputs": [
        {
          "name": "tokenId",
          "type": "uint256"
        }
      ],
      "name": "ownerOf",
      "outputs": [
        {
          "name": "",
          "type": "address"
        }
      ],
      "payable": false,
      "stateMutability": "view",
      "type": "function"
    },
    {
      "constant": true,
      "inputs": [
        {
          "name": "owner",
          "type": "address"
        }
      ],
      "name": "balanceOf",
      "outputs": [
        {
          "name": "",
          "type": "uint256"
        }
      ],
      "payable": false,
      "stateMutability": "view",
      "type": "function"
    },
    {
      "constant": false,
      "inputs": [
        {
          "name": "to",
          "type": "address"
        },
        {
          "name": "approved",
          "type": "bool"
        }
      ],
      "name": "setApprovalForAll",
      "outputs": [],
      "payable": false,
      "stateMutability": "nonpayable",
      "type": "function"
    },
    {
      "constant": false,
      "inputs": [
        {
          "name": "from",
          "type": "address"
        },
        {
          "name": "to",
          "type": "address"
        },
        {
          "name": "tokenId",
          "type": "uint256"
        },
        {
          "name": "_data",
          "type": "bytes"
        }
      ],
      "name": "safeTransferFrom",
      "outputs": [],
      "payable": false,
      "stateMutability": "nonpayable",
      "type": "function"
    },
    {
      "constant": true,
      "inputs": [
        {
          "name": "owner",
          "type": "address"
        },
        {
          "name": "operator",
          "type": "address"
        }
      ],
      "name": "isApprovedForAll",
      "outputs": [
        {
          "name": "",
          "type": "bool"
        }
      ],
      "payable": false,
      "stateMutability": "view",
      "type": "function"
    },
    {
      "anonymous": false,
      "inputs": [
        {
          "indexed": false,
          "name": "tokenID",
          "type": "uint256"
        }
      ],
      "name": "QuizCreated",
      "type": "event"
    },
    {
      "anonymous": false,
      "inputs": [
        {
          "indexed": false,
          "name": "tokenID",
          "type": "uint256"
        },
        {
          "indexed": false,
          "name": "questionNumber",
          "type": "uint8"
        },
        {
          "indexed": false,
          "name": "question",
          "type": "string"
        }
      ],
      "name": "QuestionPosted",
      "type": "event"
    },
    {
      "anonymous": false,
      "inputs": [
        {
          "indexed": false,
          "name": "tokenID",
          "type": "uint256"
        },
        {
          "indexed": false,
          "name": "questionNumber",
          "type": "uint8"
        },
        {
          "indexed": false,
          "name": "answer",
          "type": "string"
        }
      ],
      "name": "AnswerPosted",
      "type": "event"
    },
    {
      "anonymous": false,
      "inputs": [
        {
          "indexed": false,
          "name": "player",
          "type": "address"
        },
        {
          "indexed": false,
          "name": "tokenID",
          "type": "uint256"
        },
        {
          "indexed": false,
          "name": "questionNumber",
          "type": "uint256"
        }
      ],
      "name": "RightAnswer",
      "type": "event"
    },
    {
      "anonymous": false,
      "inputs": [
        {
          "indexed": false,
          "name": "player",
          "type": "address"
        },
        {
          "indexed": false,
          "name": "tokenID",
          "type": "uint256"
        },
        {
          "indexed": false,
          "name": "questionNumber",
          "type": "uint256"
        }
      ],
      "name": "WrongAnswer",
      "type": "event"
    },
    {
      "anonymous": false,
      "inputs": [
        {
          "indexed": false,
          "name": "player",
          "type": "address"
        },
        {
          "indexed": false,
          "name": "payout",
          "type": "uint256"
        }
      ],
      "name": "WINNER",
      "type": "event"
    },
    {
      "anonymous": false,
      "inputs": [
        {
          "indexed": true,
          "name": "from",
          "type": "address"
        },
        {
          "indexed": true,
          "name": "to",
          "type": "address"
        },
        {
          "indexed": true,
          "name": "tokenId",
          "type": "uint256"
        }
      ],
      "name": "Transfer",
      "type": "event"
    },
    {
      "anonymous": false,
      "inputs": [
        {
          "indexed": true,
          "name": "owner",
          "type": "address"
        },
        {
          "indexed": true,
          "name": "approved",
          "type": "address"
        },
        {
          "indexed": true,
          "name": "tokenId",
          "type": "uint256"
        }
      ],
      "name": "Approval",
      "type": "event"
    },
    {
      "anonymous": false,
      "inputs": [
        {
          "indexed": true,
          "name": "owner",
          "type": "address"
        },
        {
          "indexed": true,
          "name": "operator",
          "type": "address"
        },
        {
          "indexed": false,
          "name": "approved",
          "type": "bool"
        }
      ],
      "name": "ApprovalForAll",
      "type": "event"
    },
    {
      "constant": false,
      "inputs": [
        {
          "name": "_prize",
          "type": "uint256"
        }
      ],
      "name": "createQuiz",
      "outputs": [],
      "payable": true,
      "stateMutability": "payable",
      "type": "function"
    },
    {
      "constant": false,
      "inputs": [
        {
          "name": "tokenID",
          "type": "uint256"
        },
        {
          "name": "questionNumber",
          "type": "uint8"
        },
        {
          "name": "question",
          "type": "string"
        },
        {
          "name": "encryptedAnswer",
          "type": "bytes32"
        }
      ],
      "name": "postQuestion",
      "outputs": [],
      "payable": false,
      "stateMutability": "nonpayable",
      "type": "function"
    },
    {
      "constant": false,
      "inputs": [
        {
          "name": "tokenID",
          "type": "uint256"
        },
        {
          "name": "questionNumber",
          "type": "uint8"
        },
        {
          "name": "guess",
          "type": "string"
        }
      ],
      "name": "submitGuess",
      "outputs": [
        {
          "name": "",
          "type": "bool"
        }
      ],
      "payable": false,
      "stateMutability": "nonpayable",
      "type": "function"
    },
    {
      "constant": false,
      "inputs": [
        {
          "name": "tokenID",
          "type": "uint256"
        },
        {
          "name": "questionNumber",
          "type": "uint8"
        },
        {
          "name": "answer",
          "type": "string"
        }
      ],
      "name": "postAnswer",
      "outputs": [],
      "payable": false,
      "stateMutability": "nonpayable",
      "type": "function"
    },
    {
      "constant": false,
      "inputs": [
        {
          "name": "tokenID",
          "type": "uint256"
        }
      ],
      "name": "payMe",
      "outputs": [],
      "payable": false,
      "stateMutability": "nonpayable",
      "type": "function"
    }
  ],
  "bytecode": "0x608060405260016005556100446301ffc9a77c010000000000000000000000000000000000000000000000000000000002610084640100000000026401000000009004565b61007f6380ac58cd7c010000000000000000000000000000000000000000000000000000000002610084640100000000026401000000009004565b610141565b63ffffffff7c010000000000000000000000000000000000000000000000000000000002817bffffffffffffffffffffffffffffffffffffffffffffffffffffffff1916141515156100d557600080fd5b6001600080837bffffffffffffffffffffffffffffffffffffffffffffffffffffffff19167bffffffffffffffffffffffffffffffffffffffffffffffffffffffff1916815260200190815260200160002060006101000a81548160ff02191690831515021790555050565b611cbf806101506000396000f3006080604052600436106100db576000357c0100000000000000000000000000000000000000000000000000000000900463ffffffff16806301ffc9a7146100e0578063081812fc14610144578063095ea7b3146101b157806323b872dd146101fe57806342842e0e1461026b578063432a6a74146102d85780636352211e1461035857806370a08231146103c5578063a22cb4651461041c578063b88d4fde1461046b578063c3bc5c961461051e578063e985e9c5146105b6578063eea32b2e14610631578063f76f35ce146106bf578063fcc3a485146106df575b600080fd5b3480156100ec57600080fd5b5061012a60048036038101908080357bffffffffffffffffffffffffffffffffffffffffffffffffffffffff1916906020019092919050505061070c565b604051808215151515815260200191505060405180910390f35b34801561015057600080fd5b5061016f60048036038101908080359060200190929190505050610773565b604051808273ffffffffffffffffffffffffffffffffffffffff1673ffffffffffffffffffffffffffffffffffffffff16815260200191505060405180910390f35b3480156101bd57600080fd5b506101fc600480360381019080803573ffffffffffffffffffffffffffffffffffffffff169060200190929190803590602001909291905050506107c4565b005b34801561020a57600080fd5b50610269600480360381019080803573ffffffffffffffffffffffffffffffffffffffff169060200190929190803573ffffffffffffffffffffffffffffffffffffffff16906020019092919080359060200190929190505050610909565b005b34801561027757600080fd5b506102d6600480360381019080803573ffffffffffffffffffffffffffffffffffffffff169060200190929190803573ffffffffffffffffffffffffffffffffffffffff169060200190929190803590602001909291905050506109d8565b005b3480156102e457600080fd5b5061035660048036038101908080359060200190929190803560ff169060200190929190803590602001908201803590602001908080601f01602080910402602001604051908101604052809392919081815260200183838082843782019150505050505091929192905050506109f9565b005b34801561036457600080fd5b5061038360048036038101908080359060200190929190505050610b4f565b604051808273ffffffffffffffffffffffffffffffffffffffff1673ffffffffffffffffffffffffffffffffffffffff16815260200191505060405180910390f35b3480156103d157600080fd5b50610406600480360381019080803573ffffffffffffffffffffffffffffffffffffffff169060200190929190505050610bcd565b6040518082815260200191505060405180910390f35b34801561042857600080fd5b50610469600480360381019080803573ffffffffffffffffffffffffffffffffffffffff169060200190929190803515159060200190929190505050610c51565b005b34801561047757600080fd5b5061051c600480360381019080803573ffffffffffffffffffffffffffffffffffffffff169060200190929190803573ffffffffffffffffffffffffffffffffffffffff16906020019092919080359060200190929190803590602001908201803590602001908080601f0160208091040260200160405190810160405280939291908181526020018383808284378201915050505050509192919290505050610d8d565b005b34801561052a57600080fd5b5061059c60048036038101908080359060200190929190803560ff169060200190929190803590602001908201803590602001908080601f0160208091040260200160405190810160405280939291908181526020018383808284378201915050505050509192919290505050610db5565b604051808215151515815260200191505060405180910390f35b3480156105c257600080fd5b50610617600480360381019080803573ffffffffffffffffffffffffffffffffffffffff169060200190929190803573ffffffffffffffffffffffffffffffffffffffff1690602001909291905050506110d0565b604051808215151515815260200191505060405180910390f35b34801561063d57600080fd5b506106bd60048036038101908080359060200190929190803560ff169060200190929190803590602001908201803590602001908080601f01602080910402602001604051908101604052809392919081815260200183838082843782019150505050505091929192908035600019169060200190929190505050611164565b005b6106dd6004803603810190808035906020019092919050505061128e565b005b3480156106eb57600080fd5b5061070a60048036038101908080359060200190929190505050611316565b005b6000806000837bffffffffffffffffffffffffffffffffffffffffffffffffffffffff19167bffffffffffffffffffffffffffffffffffffffffffffffffffffffff1916815260200190815260200160002060009054906101000a900460ff169050919050565b600061077e826114e3565b151561078957600080fd5b6002600083815260200190815260200160002060009054906101000a900473ffffffffffffffffffffffffffffffffffffffff169050919050565b60006107cf82610b4f565b90508073ffffffffffffffffffffffffffffffffffffffff168373ffffffffffffffffffffffffffffffffffffffff161415151561080c57600080fd5b8073ffffffffffffffffffffffffffffffffffffffff163373ffffffffffffffffffffffffffffffffffffffff16148061084c575061084b81336110d0565b5b151561085757600080fd5b826002600084815260200190815260200160002060006101000a81548173ffffffffffffffffffffffffffffffffffffffff021916908373ffffffffffffffffffffffffffffffffffffffff160217905550818373ffffffffffffffffffffffffffffffffffffffff168273ffffffffffffffffffffffffffffffffffffffff167f8c5be1e5ebec7d5bd14f71427d1e84f3dd0314c0f7b2291e5b200ac8c7c3b92560405160405180910390a4505050565b6109133382611555565b151561091e57600080fd5b600073ffffffffffffffffffffffffffffffffffffffff168273ffffffffffffffffffffffffffffffffffffffff161415151561095a57600080fd5b61096483826115ea565b61096e83826116ed565b610978828261181c565b808273ffffffffffffffffffffffffffffffffffffffff168473ffffffffffffffffffffffffffffffffffffffff167fddf252ad1be2c89b69c2b068fc378daa952ba7f163c4a11628f55a4df523b3ef60405160405180910390a4505050565b6109f48383836020604051908101604052806000815250610d8d565b505050565b6009600084815260200190815260200160002060008360ff1681526020019081526020016000205460001916816040518082805190602001908083835b602083101515610a5b5780518252602082019150602081019050602083039250610a36565b6001836020036101000a038019825116818451168082178552505050505050905001915050604051809103902060001916141515610a9857600080fd5b7f2e44610d47342face6149324d91b807a80060a30160ebdea2f6f6fbb5061d997838383604051808481526020018360ff1660ff16815260200180602001828103825283818151815260200191508051906020019080838360005b83811015610b0e578082015181840152602081019050610af3565b50505050905090810190601f168015610b3b5780820380516001836020036101000a031916815260200191505b5094505050505060405180910390a1505050565b6000806001600084815260200190815260200160002060009054906101000a900473ffffffffffffffffffffffffffffffffffffffff169050600073ffffffffffffffffffffffffffffffffffffffff168173ffffffffffffffffffffffffffffffffffffffff1614151515610bc457600080fd5b80915050919050565b60008073ffffffffffffffffffffffffffffffffffffffff168273ffffffffffffffffffffffffffffffffffffffff1614151515610c0a57600080fd5b600360008373ffffffffffffffffffffffffffffffffffffffff1673ffffffffffffffffffffffffffffffffffffffff168152602001908152602001600020549050919050565b3373ffffffffffffffffffffffffffffffffffffffff168273ffffffffffffffffffffffffffffffffffffffff1614151515610c8c57600080fd5b80600460003373ffffffffffffffffffffffffffffffffffffffff1673ffffffffffffffffffffffffffffffffffffffff16815260200190815260200160002060008473ffffffffffffffffffffffffffffffffffffffff1673ffffffffffffffffffffffffffffffffffffffff16815260200190815260200160002060006101000a81548160ff0219169083151502179055508173ffffffffffffffffffffffffffffffffffffffff163373ffffffffffffffffffffffffffffffffffffffff167f17307eab39ab6107e8899845ad3d59bd9653f200f220920489ca2b5937696c3183604051808215151515815260200191505060405180910390a35050565b610d98848484610909565b610da484848484611976565b1515610daf57600080fd5b50505050565b600080600a600086815260200190815260200160002060003373ffffffffffffffffffffffffffffffffffffffff1673ffffffffffffffffffffffffffffffffffffffff16815260200190815260200160002060008560ff1660ff16815260200190815260200160002060009054906101000a900460ff1660ff16141515610e3c57600080fd5b6009600085815260200190815260200160002060008460ff1681526020019081526020016000205460001916826040518082805190602001908083835b602083101515610e9e5780518252602082019150602081019050602083039250610e79565b6001836020036101000a0380198251168184511680821785525050505050509050019150506040518091039020600019161415610fd1576001600a600086815260200190815260200160002060003373ffffffffffffffffffffffffffffffffffffffff1673ffffffffffffffffffffffffffffffffffffffff16815260200190815260200160002060008560ff1660ff16815260200190815260200160002060006101000a81548160ff021916908360ff1602179055507f9a3f7050b48f425d1db73fd1f37fe83c8c57e1d42baa0c4b9b5043bc1f34ba67338585604051808473ffffffffffffffffffffffffffffffffffffffff1673ffffffffffffffffffffffffffffffffffffffff1681526020018381526020018260ff168152602001935050505060405180910390a16110c9565b6002600a600086815260200190815260200160002060003373ffffffffffffffffffffffffffffffffffffffff1673ffffffffffffffffffffffffffffffffffffffff16815260200190815260200160002060008560ff1660ff16815260200190815260200160002060006101000a81548160ff021916908360ff1602179055507f6cdd98824d999239f5344bbcbf93abceab2def1821bfe0d331adcbace80919de338585604051808473ffffffffffffffffffffffffffffffffffffffff1673ffffffffffffffffffffffffffffffffffffffff1681526020018381526020018260ff168152602001935050505060405180910390a15b9392505050565b6000600460008473ffffffffffffffffffffffffffffffffffffffff1673ffffffffffffffffffffffffffffffffffffffff16815260200190815260200160002060008373ffffffffffffffffffffffffffffffffffffffff1673ffffffffffffffffffffffffffffffffffffffff16815260200190815260200160002060009054906101000a900460ff16905092915050565b61116d84610b4f565b73ffffffffffffffffffffffffffffffffffffffff163373ffffffffffffffffffffffffffffffffffffffff161415156111a657600080fd5b806009600086815260200190815260200160002060008560ff16815260200190815260200160002081600019169055507f46fde08e121616054793ffcd8cc4847f5b4de86b9de9b498ae38384c418a7752848484604051808481526020018360ff1660ff16815260200180602001828103825283818151815260200191508051906020019080838360005b8381101561124c578082015181840152602081019050611231565b50505050905090810190601f1680156112795780820380516001836020036101000a031916815260200191505b5094505050505060405180910390a150505050565b61129a33600554611b98565b346006600060055481526020019081526020016000208190555080600860006005548152602001908152602001600020819055507f3e40a8f3a7981dd51f9393d90812cfa6557c89048e72ec451de836b92052874f6005546040518082815260200191505060405180910390a160016005540160058190555050565b6000600190505b60058160ff161115156113bd576001600a600084815260200190815260200160002060003373ffffffffffffffffffffffffffffffffffffffff1673ffffffffffffffffffffffffffffffffffffffff16815260200190815260200160002060008360ff1660ff16815260200190815260200160002060009054906101000a900460ff1660ff161415156113b057600080fd5b808060010191505061131d565b600660008381526020019081526020016000205460086000848152602001908152602001600020546007600085815260200190815260200160002054011115151561140757600080fd5b7fc9f63ef5cfa4c96e87c58ee8220310a4e89a25f80321a3c3ec3fc76f72578c08336008600085815260200190815260200160002054604051808373ffffffffffffffffffffffffffffffffffffffff1673ffffffffffffffffffffffffffffffffffffffff1681526020018281526020019250505060405180910390a13373ffffffffffffffffffffffffffffffffffffffff166108fc60086000858152602001908152602001600020549081150290604051600060405180830381858888f193505050501580156114de573d6000803e3d6000fd5b505050565b6000806001600084815260200190815260200160002060009054906101000a900473ffffffffffffffffffffffffffffffffffffffff169050600073ffffffffffffffffffffffffffffffffffffffff168173ffffffffffffffffffffffffffffffffffffffff161415915050919050565b60008061156183610b4f565b90508073ffffffffffffffffffffffffffffffffffffffff168473ffffffffffffffffffffffffffffffffffffffff1614806115d057508373ffffffffffffffffffffffffffffffffffffffff166115b884610773565b73ffffffffffffffffffffffffffffffffffffffff16145b806115e157506115e081856110d0565b5b91505092915050565b8173ffffffffffffffffffffffffffffffffffffffff1661160a82610b4f565b73ffffffffffffffffffffffffffffffffffffffff1614151561162c57600080fd5b600073ffffffffffffffffffffffffffffffffffffffff166002600083815260200190815260200160002060009054906101000a900473ffffffffffffffffffffffffffffffffffffffff1673ffffffffffffffffffffffffffffffffffffffff161415156116e95760006002600083815260200190815260200160002060006101000a81548173ffffffffffffffffffffffffffffffffffffffff021916908373ffffffffffffffffffffffffffffffffffffffff1602179055505b5050565b8173ffffffffffffffffffffffffffffffffffffffff1661170d82610b4f565b73ffffffffffffffffffffffffffffffffffffffff1614151561172f57600080fd5b6117826001600360008573ffffffffffffffffffffffffffffffffffffffff1673ffffffffffffffffffffffffffffffffffffffff16815260200190815260200160002054611c3e90919063ffffffff16565b600360008473ffffffffffffffffffffffffffffffffffffffff1673ffffffffffffffffffffffffffffffffffffffff1681526020019081526020016000208190555060006001600083815260200190815260200160002060006101000a81548173ffffffffffffffffffffffffffffffffffffffff021916908373ffffffffffffffffffffffffffffffffffffffff1602179055505050565b600073ffffffffffffffffffffffffffffffffffffffff166001600083815260200190815260200160002060009054906101000a900473ffffffffffffffffffffffffffffffffffffffff1673ffffffffffffffffffffffffffffffffffffffff1614151561188a57600080fd5b816001600083815260200190815260200160002060006101000a81548173ffffffffffffffffffffffffffffffffffffffff021916908373ffffffffffffffffffffffffffffffffffffffff16021790555061192f6001600360008573ffffffffffffffffffffffffffffffffffffffff1673ffffffffffffffffffffffffffffffffffffffff16815260200190815260200160002054611c5f90919063ffffffff16565b600360008473ffffffffffffffffffffffffffffffffffffffff1673ffffffffffffffffffffffffffffffffffffffff168152602001908152602001600020819055505050565b6000806119988573ffffffffffffffffffffffffffffffffffffffff16611c80565b15156119a75760019150611b8f565b8473ffffffffffffffffffffffffffffffffffffffff1663150b7a02338887876040518563ffffffff167c0100000000000000000000000000000000000000000000000000000000028152600401808573ffffffffffffffffffffffffffffffffffffffff1673ffffffffffffffffffffffffffffffffffffffff1681526020018473ffffffffffffffffffffffffffffffffffffffff1673ffffffffffffffffffffffffffffffffffffffff16815260200183815260200180602001828103825283818151815260200191508051906020019080838360005b83811015611a9c578082015181840152602081019050611a81565b50505050905090810190601f168015611ac95780820380516001836020036101000a031916815260200191505b5095505050505050602060405180830381600087803b158015611aeb57600080fd5b505af1158015611aff573d6000803e3d6000fd5b505050506040513d6020811015611b1557600080fd5b8101908080519060200190929190505050905063150b7a027c0100000000000000000000000000000000000000000000000000000000027bffffffffffffffffffffffffffffffffffffffffffffffffffffffff1916817bffffffffffffffffffffffffffffffffffffffffffffffffffffffff19161491505b50949350505050565b600073ffffffffffffffffffffffffffffffffffffffff168273ffffffffffffffffffffffffffffffffffffffff1614151515611bd457600080fd5b611bde828261181c565b808273ffffffffffffffffffffffffffffffffffffffff16600073ffffffffffffffffffffffffffffffffffffffff167fddf252ad1be2c89b69c2b068fc378daa952ba7f163c4a11628f55a4df523b3ef60405160405180910390a45050565b600080838311151515611c5057600080fd5b82840390508091505092915050565b6000808284019050838110151515611c7657600080fd5b8091505092915050565b600080823b9050600081119150509190505600a165627a7a72305820b038413940e5180919a91971a0a39b995e9d59dbff650d0b8e65a3d3ae877f7f0029",
  "source": "pragma solidity ^0.4.23;\r\n\r\n\r\nimport \"openzeppelin-solidity/contracts/token/ERC721/ERC721.sol\";\r\n\r\ncontract Quiz is ERC721 {\r\n    //An ERC-721 implemention of a Quiz that pays out real money to players.\r\n\r\n    uint idCounter = 1;\r\n\r\n    mapping (uint256 => uint256) pots; // The total pot for each quiz ID\r\n    mapping (uint256 => uint256) totalsPaidOut;\r\n    mapping (uint256 => uint256) prizes;\r\n    mapping (uint256 => mapping (uint256 => bytes32)) encryptedAnswers; //tokenID=>questionNumber=>encryptedAnswer\r\n    mapping (uint256 => mapping (address => mapping (uint8 => uint8))) scorecards; //tokenID=>player=>questionNumber=>right/wrong (0=noanswer, 1=right, 2=wrong)\r\n\r\n\r\n    event QuizCreated(uint tokenID);\r\n    event QuestionPosted(uint tokenID, uint8 questionNumber, string question);\r\n    event AnswerPosted(uint tokenID, uint8 questionNumber, string answer);\r\n    event RightAnswer(address player, uint tokenID, uint questionNumber);\r\n    event WrongAnswer(address player, uint tokenID, uint questionNumber);    \r\n    event WINNER(address player, uint payout);\r\n\r\n    function createQuiz (uint _prize) payable {\r\n        _mint(msg.sender, idCounter);\r\n        pots[idCounter] = msg.value;\r\n        prizes[idCounter] = _prize; //pay out a finite prize for each participant. TODO implement pot splitting.\r\n        emit QuizCreated(idCounter);\r\n        idCounter = idCounter + 1;\r\n    }\r\n\r\n\r\n    function postQuestion(uint tokenID, uint8 questionNumber, string question, bytes32 encryptedAnswer) {    \r\n        require(msg.sender == ownerOf(tokenID));\r\n        encryptedAnswers[tokenID][questionNumber] = encryptedAnswer;\r\n        emit QuestionPosted(tokenID, questionNumber, question);\r\n\r\n    }\r\n\r\n\r\n    function submitGuess(uint tokenID, uint8 questionNumber, string guess) returns (bool){\r\n        //TODO implement protection for users to stop them from submitting if there are already more players than the pot can support.\r\n        require(scorecards[tokenID][msg.sender][questionNumber] == 0);\r\n        if (keccak256(guess) == encryptedAnswers[tokenID][questionNumber]) {\r\n            scorecards[tokenID][msg.sender][questionNumber] = 1;\r\n            emit RightAnswer(msg.sender, tokenID, questionNumber);\r\n        }\r\n\r\n        else {\r\n            scorecards[tokenID][msg.sender][questionNumber] = 2;\r\n            emit WrongAnswer(msg.sender, tokenID, questionNumber);\r\n        }\r\n\r\n    }\r\n\r\n\r\n    function postAnswer(uint tokenID, uint8 questionNumber, string answer) {\r\n  //    require(msg.sender == ownerOf(tokenID)); TODO why is this failing?\r\n        require(keccak256(answer) == encryptedAnswers[tokenID][questionNumber]);\r\n        emit AnswerPosted(tokenID, questionNumber, answer);\r\n    }\r\n\r\n\r\n    function payMe(uint tokenID) {\r\n        for (uint8 question = 1; question <= 5; question++) {\r\n            require(scorecards[tokenID][msg.sender][question] == 1);\r\n        }\r\n        require(totalsPaidOut[tokenID] + prizes[tokenID] <= pots[tokenID]);\r\n        emit WINNER(msg.sender, prizes[tokenID]);\r\n        msg.sender.transfer(prizes[tokenID]);\r\n    }\r\n\r\n}\r\n",
  "sourcePath": "C:\\Users\\magduf\\Documents\\Github\\Hackathon\\HackathonMalta\\ben-truffle\\contracts\\Quiz.sol",
  "compiler": {
    "name": "solc",
    "version": "0.4.24+commit.e67f0147.Emscripten.clang"
  },
  "schemaVersion": "2.0.0",
  "updatedAt": "2018-11-02T10:55:24.154Z"
}