{
  "contractName": "MyRinkebyToken",
  "abi": [
    {
      "constant": true,
      "inputs": [
        {
          "name": "_interfaceId",
          "type": "bytes4"
        }
      ],
      "name": "supportsInterface",
      "outputs": [
        {
          "name": "",
          "type": "bool"
        }
      ],
      "payable": false,
      "stateMutability": "view",
      "type": "function"
    },
    {
      "constant": true,
      "inputs": [],
      "name": "name",
      "outputs": [
        {
          "name": "",
          "type": "string"
        }
      ],
      "payable": false,
      "stateMutability": "view",
      "type": "function"
    },
    {
      "constant": true,
      "inputs": [
        {
          "name": "_tokenId",
          "type": "uint256"
        }
      ],
      "name": "getApproved",
      "outputs": [
        {
          "name": "",
          "type": "address"
        }
      ],
      "payable": false,
      "stateMutability": "view",
      "type": "function"
    },
    {
      "constant": false,
      "inputs": [
        {
          "name": "_to",
          "type": "address"
        },
        {
          "name": "_tokenId",
          "type": "uint256"
        }
      ],
      "name": "approve",
      "outputs": [],
      "payable": false,
      "stateMutability": "nonpayable",
      "type": "function"
    },
    {
      "constant": true,
      "inputs": [],
      "name": "totalSupply",
      "outputs": [
        {
          "name": "",
          "type": "uint256"
        }
      ],
      "payable": false,
      "stateMutability": "view",
      "type": "function"
    },
    {
      "constant": true,
      "inputs": [],
      "name": "InterfaceId_ERC165",
      "outputs": [
        {
          "name": "",
          "type": "bytes4"
        }
      ],
      "payable": false,
      "stateMutability": "view",
      "type": "function"
    },
    {
      "constant": false,
      "inputs": [
        {
          "name": "_from",
          "type": "address"
        },
        {
          "name": "_to",
          "type": "address"
        },
        {
          "name": "_tokenId",
          "type": "uint256"
        }
      ],
      "name": "transferFrom",
      "outputs": [],
      "payable": false,
      "stateMutability": "nonpayable",
      "type": "function"
    },
    {
      "constant": true,
      "inputs": [
        {
          "name": "_owner",
          "type": "address"
        },
        {
          "name": "_index",
          "type": "uint256"
        }
      ],
      "name": "tokenOfOwnerByIndex",
      "outputs": [
        {
          "name": "",
          "type": "uint256"
        }
      ],
      "payable": false,
      "stateMutability": "view",
      "type": "function"
    },
    {
      "constant": false,
      "inputs": [
        {
          "name": "_from",
          "type": "address"
        },
        {
          "name": "_to",
          "type": "address"
        },
        {
          "name": "_tokenId",
          "type": "uint256"
        }
      ],
      "name": "safeTransferFrom",
      "outputs": [],
      "payable": false,
      "stateMutability": "nonpayable",
      "type": "function"
    },
    {
      "constant": true,
      "inputs": [
        {
          "name": "_tokenId",
          "type": "uint256"
        }
      ],
      "name": "exists",
      "outputs": [
        {
          "name": "",
          "type": "bool"
        }
      ],
      "payable": false,
      "stateMutability": "view",
      "type": "function"
    },
    {
      "constant": true,
      "inputs": [
        {
          "name": "_index",
          "type": "uint256"
        }
      ],
      "name": "tokenByIndex",
      "outputs": [
        {
          "name": "",
          "type": "uint256"
        }
      ],
      "payable": false,
      "stateMutability": "view",
      "type": "function"
    },
    {
      "constant": true,
      "inputs": [
        {
          "name": "_tokenId",
          "type": "uint256"
        }
      ],
      "name": "ownerOf",
      "outputs": [
        {
          "name": "",
          "type": "address"
        }
      ],
      "payable": false,
      "stateMutability": "view",
      "type": "function"
    },
    {
      "constant": true,
      "inputs": [
        {
          "name": "_owner",
          "type": "address"
        }
      ],
      "name": "balanceOf",
      "outputs": [
        {
          "name": "",
          "type": "uint256"
        }
      ],
      "payable": false,
      "stateMutability": "view",
      "type": "function"
    },
    {
      "constant": true,
      "inputs": [],
      "name": "symbol",
      "outputs": [
        {
          "name": "",
          "type": "string"
        }
      ],
      "payable": false,
      "stateMutability": "view",
      "type": "function"
    },
    {
      "constant": false,
      "inputs": [
        {
          "name": "_to",
          "type": "address"
        },
        {
          "name": "_approved",
          "type": "bool"
        }
      ],
      "name": "setApprovalForAll",
      "outputs": [],
      "payable": false,
      "stateMutability": "nonpayable",
      "type": "function"
    },
    {
      "constant": false,
      "inputs": [
        {
          "name": "_from",
          "type": "address"
        },
        {
          "name": "_to",
          "type": "address"
        },
        {
          "name": "_tokenId",
          "type": "uint256"
        },
        {
          "name": "_data",
          "type": "bytes"
        }
      ],
      "name": "safeTransferFrom",
      "outputs": [],
      "payable": false,
      "stateMutability": "nonpayable",
      "type": "function"
    },
    {
      "constant": true,
      "inputs": [
        {
          "name": "_tokenId",
          "type": "uint256"
        }
      ],
      "name": "tokenURI",
      "outputs": [
        {
          "name": "",
          "type": "string"
        }
      ],
      "payable": false,
      "stateMutability": "view",
      "type": "function"
    },
    {
      "constant": true,
      "inputs": [
        {
          "name": "_owner",
          "type": "address"
        },
        {
          "name": "_operator",
          "type": "address"
        }
      ],
      "name": "isApprovedForAll",
      "outputs": [
        {
          "name": "",
          "type": "bool"
        }
      ],
      "payable": false,
      "stateMutability": "view",
      "type": "function"
    },
    {
      "inputs": [],
      "payable": false,
      "stateMutability": "nonpayable",
      "type": "constructor"
    },
    {
      "anonymous": false,
      "inputs": [
        {
          "indexed": false,
          "name": "tokenID",
          "type": "uint256"
        },
        {
          "indexed": false,
          "name": "questionNumber",
          "type": "uint8"
        },
        {
          "indexed": false,
          "name": "question",
          "type": "string"
        }
      ],
      "name": "QuestionPosted",
      "type": "event"
    },
    {
      "anonymous": false,
      "inputs": [
        {
          "indexed": false,
          "name": "tokenID",
          "type": "uint256"
        },
        {
          "indexed": false,
          "name": "questionNumber",
          "type": "uint8"
        },
        {
          "indexed": false,
          "name": "answer",
          "type": "string"
        }
      ],
      "name": "AnswerPosted",
      "type": "event"
    },
    {
      "anonymous": false,
      "inputs": [
        {
          "indexed": false,
          "name": "tokenID",
          "type": "uint256"
        }
      ],
      "name": "QuizCreated",
      "type": "event"
    },
    {
      "anonymous": false,
      "inputs": [
        {
          "indexed": false,
          "name": "message",
          "type": "bytes32"
        }
      ],
      "name": "debug",
      "type": "event"
    },
    {
      "anonymous": false,
      "inputs": [
        {
          "indexed": false,
          "name": "player",
          "type": "address"
        },
        {
          "indexed": false,
          "name": "tokenID",
          "type": "uint256"
        },
        {
          "indexed": false,
          "name": "questionNumber",
          "type": "uint256"
        }
      ],
      "name": "RightAnswer",
      "type": "event"
    },
    {
      "anonymous": false,
      "inputs": [
        {
          "indexed": false,
          "name": "player",
          "type": "address"
        },
        {
          "indexed": false,
          "name": "tokenID",
          "type": "uint256"
        },
        {
          "indexed": false,
          "name": "questionNumber",
          "type": "uint256"
        }
      ],
      "name": "WrongAnswer",
      "type": "event"
    },
    {
      "anonymous": false,
      "inputs": [
        {
          "indexed": false,
          "name": "player",
          "type": "address"
        },
        {
          "indexed": false,
          "name": "payout",
          "type": "uint256"
        }
      ],
      "name": "WINNER",
      "type": "event"
    },
    {
      "anonymous": false,
      "inputs": [
        {
          "indexed": true,
          "name": "_from",
          "type": "address"
        },
        {
          "indexed": true,
          "name": "_to",
          "type": "address"
        },
        {
          "indexed": true,
          "name": "_tokenId",
          "type": "uint256"
        }
      ],
      "name": "Transfer",
      "type": "event"
    },
    {
      "anonymous": false,
      "inputs": [
        {
          "indexed": true,
          "name": "_owner",
          "type": "address"
        },
        {
          "indexed": true,
          "name": "_approved",
          "type": "address"
        },
        {
          "indexed": true,
          "name": "_tokenId",
          "type": "uint256"
        }
      ],
      "name": "Approval",
      "type": "event"
    },
    {
      "anonymous": false,
      "inputs": [
        {
          "indexed": true,
          "name": "_owner",
          "type": "address"
        },
        {
          "indexed": true,
          "name": "_operator",
          "type": "address"
        },
        {
          "indexed": false,
          "name": "_approved",
          "type": "bool"
        }
      ],
      "name": "ApprovalForAll",
      "type": "event"
    },
    {
      "constant": false,
      "inputs": [
        {
          "name": "_uid",
          "type": "uint256"
        }
      ],
      "name": "mint",
      "outputs": [],
      "payable": false,
      "stateMutability": "nonpayable",
      "type": "function"
    },
    {
      "constant": false,
      "inputs": [
        {
          "name": "_prize",
          "type": "uint256"
        }
      ],
      "name": "createQuiz",
      "outputs": [],
      "payable": true,
      "stateMutability": "payable",
      "type": "function"
    },
    {
      "constant": false,
      "inputs": [
        {
          "name": "tokenID",
          "type": "uint256"
        },
        {
          "name": "questionNumber",
          "type": "uint8"
        },
        {
          "name": "question",
          "type": "string"
        },
        {
          "name": "encryptedAnswer",
          "type": "bytes32"
        }
      ],
      "name": "postQuestion",
      "outputs": [],
      "payable": false,
      "stateMutability": "nonpayable",
      "type": "function"
    },
    {
      "constant": false,
      "inputs": [
        {
          "name": "tokenID",
          "type": "uint256"
        },
        {
          "name": "questionNumber",
          "type": "uint8"
        },
        {
          "name": "guess",
          "type": "string"
        }
      ],
      "name": "submitGuess",
      "outputs": [
        {
          "name": "",
          "type": "bool"
        }
      ],
      "payable": false,
      "stateMutability": "nonpayable",
      "type": "function"
    },
    {
      "constant": false,
      "inputs": [
        {
          "name": "tokenID",
          "type": "uint256"
        },
        {
          "name": "questionNumber",
          "type": "uint8"
        },
        {
          "name": "answer",
          "type": "string"
        }
      ],
      "name": "postAnswer",
      "outputs": [],
      "payable": false,
      "stateMutability": "nonpayable",
      "type": "function"
    },
    {
      "constant": false,
      "inputs": [
        {
          "name": "tokenID",
          "type": "uint256"
        }
      ],
      "name": "payMe",
      "outputs": [],
      "payable": false,
      "stateMutability": "nonpayable",
      "type": "function"
    },
    {
      "constant": false,
      "inputs": [
        {
          "name": "_gateway",
          "type": "address"
        },
        {
          "name": "_uid",
          "type": "uint256"
        }
      ],
      "name": "depositToGateway",
      "outputs": [],
      "payable": false,
      "stateMutability": "nonpayable",
      "type": "function"
    }
  ],
  "bytecode": "0x60806040526001600c553480156200001657600080fd5b506040805190810160405280600e81526020017f4d7952696e6b656279546f6b656e0000000000000000000000000000000000008152506040805190810160405280600381526020017f4d52540000000000000000000000000000000000000000000000000000000000815250620000c06301ffc9a77c010000000000000000000000000000000000000000000000000000000002620001ee640100000000026401000000009004565b620000fd6380ac58cd7c010000000000000000000000000000000000000000000000000000000002620001ee640100000000026401000000009004565b6200013a634f558e797c010000000000000000000000000000000000000000000000000000000002620001ee640100000000026401000000009004565b816005908051906020019062000152929190620002ac565b5080600690805190602001906200016b929190620002ac565b50620001a963780e9d637c010000000000000000000000000000000000000000000000000000000002620001ee640100000000026401000000009004565b620001e6635b5e139f7c010000000000000000000000000000000000000000000000000000000002620001ee640100000000026401000000009004565b50506200035b565b63ffffffff7c010000000000000000000000000000000000000000000000000000000002817bffffffffffffffffffffffffffffffffffffffffffffffffffffffff1916141515156200024057600080fd5b6001600080837bffffffffffffffffffffffffffffffffffffffffffffffffffffffff19167bffffffffffffffffffffffffffffffffffffffffffffffffffffffff1916815260200190815260200160002060006101000a81548160ff02191690831515021790555050565b828054600181600116156101000203166002900490600052602060002090601f016020900481019282601f10620002ef57805160ff191683800117855562000320565b8280016001018555821562000320579182015b828111156200031f57825182559160200191906001019062000302565b5b5090506200032f919062000333565b5090565b6200035891905b80821115620003545760008160009055506001016200033a565b5090565b90565b61278c806200036b6000396000f300608060405260043610610149576000357c0100000000000000000000000000000000000000000000000000000000900463ffffffff16806301ffc9a71461014e57806306fdde03146101b2578063081812fc14610242578063095ea7b3146102af57806318160ddd146102fc57806319fa8f501461032757806323b872dd146103905780632f745c59146103fd57806342842e0e1461045e578063432a6a74146104cb5780634f558e791461054b5780634f6ccce7146105905780636352211e146105d157806370a082311461063e57806395d89b4114610695578063a0712d6814610725578063a22cb46514610752578063b88d4fde146107a1578063c3bc5c9614610854578063c87b56dd146108ec578063e985e9c514610992578063eb6bf63314610a0d578063eea32b2e14610a5a578063f76f35ce14610ae8578063fcc3a48514610b08575b600080fd5b34801561015a57600080fd5b5061019860048036038101908080357bffffffffffffffffffffffffffffffffffffffffffffffffffffffff19169060200190929190505050610b35565b604051808215151515815260200191505060405180910390f35b3480156101be57600080fd5b506101c7610b9c565b6040518080602001828103825283818151815260200191508051906020019080838360005b838110156102075780820151818401526020810190506101ec565b50505050905090810190601f1680156102345780820380516001836020036101000a031916815260200191505b509250505060405180910390f35b34801561024e57600080fd5b5061026d60048036038101908080359060200190929190505050610c3e565b604051808273ffffffffffffffffffffffffffffffffffffffff1673ffffffffffffffffffffffffffffffffffffffff16815260200191505060405180910390f35b3480156102bb57600080fd5b506102fa600480360381019080803573ffffffffffffffffffffffffffffffffffffffff16906020019092919080359060200190929190505050610c7b565b005b34801561030857600080fd5b50610311610dc0565b6040518082815260200191505060405180910390f35b34801561033357600080fd5b5061033c610dcd565b60405180827bffffffffffffffffffffffffffffffffffffffffffffffffffffffff19167bffffffffffffffffffffffffffffffffffffffffffffffffffffffff1916815260200191505060405180910390f35b34801561039c57600080fd5b506103fb600480360381019080803573ffffffffffffffffffffffffffffffffffffffff169060200190929190803573ffffffffffffffffffffffffffffffffffffffff16906020019092919080359060200190929190505050610df4565b005b34801561040957600080fd5b50610448600480360381019080803573ffffffffffffffffffffffffffffffffffffffff16906020019092919080359060200190929190505050610eff565b6040518082815260200191505060405180910390f35b34801561046a57600080fd5b506104c9600480360381019080803573ffffffffffffffffffffffffffffffffffffffff169060200190929190803573ffffffffffffffffffffffffffffffffffffffff16906020019092919080359060200190929190505050610f76565b005b3480156104d757600080fd5b5061054960048036038101908080359060200190929190803560ff169060200190929190803590602001908201803590602001908080601f0160208091040260200160405190810160405280939291908181526020018383808284378201915050505050509192919290505050610f97565b005b34801561055757600080fd5b506105766004803603810190808035906020019092919050505061112f565b604051808215151515815260200191505060405180910390f35b34801561059c57600080fd5b506105bb600480360381019080803590602001909291905050506111a1565b6040518082815260200191505060405180910390f35b3480156105dd57600080fd5b506105fc600480360381019080803590602001909291905050506111d9565b604051808273ffffffffffffffffffffffffffffffffffffffff1673ffffffffffffffffffffffffffffffffffffffff16815260200191505060405180910390f35b34801561064a57600080fd5b5061067f600480360381019080803573ffffffffffffffffffffffffffffffffffffffff169060200190929190505050611257565b6040518082815260200191505060405180910390f35b3480156106a157600080fd5b506106aa6112db565b6040518080602001828103825283818151815260200191508051906020019080838360005b838110156106ea5780820151818401526020810190506106cf565b50505050905090810190601f1680156107175780820380516001836020036101000a031916815260200191505b509250505060405180910390f35b34801561073157600080fd5b506107506004803603810190808035906020019092919050505061137d565b005b34801561075e57600080fd5b5061079f600480360381019080803573ffffffffffffffffffffffffffffffffffffffff16906020019092919080351515906020019092919050505061138a565b005b3480156107ad57600080fd5b50610852600480360381019080803573ffffffffffffffffffffffffffffffffffffffff169060200190929190803573ffffffffffffffffffffffffffffffffffffffff16906020019092919080359060200190929190803590602001908201803590602001908080601f01602080910402602001604051908101604052809392919081815260200183838082843782019150505050505091929192905050506114c6565b005b34801561086057600080fd5b506108d260048036038101908080359060200190929190803560ff169060200190929190803590602001908201803590602001908080601f01602080910402602001604051908101604052809392919081815260200183838082843782019150505050505091929192905050506114ee565b604051808215151515815260200191505060405180910390f35b3480156108f857600080fd5b5061091760048036038101908080359060200190929190505050611809565b6040518080602001828103825283818151815260200191508051906020019080838360005b8381101561095757808201518184015260208101905061093c565b50505050905090810190601f1680156109845780820380516001836020036101000a031916815260200191505b509250505060405180910390f35b34801561099e57600080fd5b506109f3600480360381019080803573ffffffffffffffffffffffffffffffffffffffff169060200190929190803573ffffffffffffffffffffffffffffffffffffffff1690602001909291905050506118d2565b604051808215151515815260200191505060405180910390f35b348015610a1957600080fd5b50610a58600480360381019080803573ffffffffffffffffffffffffffffffffffffffff16906020019092919080359060200190929190505050611966565b005b348015610a6657600080fd5b50610ae660048036038101908080359060200190929190803560ff169060200190929190803590602001908201803590602001908080601f01602080910402602001604051908101604052809392919081815260200183838082843782019150505050505091929192908035600019169060200190929190505050611975565b005b610b0660048036038101908080359060200190929190505050611a9f565b005b348015610b1457600080fd5b50610b3360048036038101908080359060200190929190505050611b27565b005b6000806000837bffffffffffffffffffffffffffffffffffffffffffffffffffffffff19167bffffffffffffffffffffffffffffffffffffffffffffffffffffffff1916815260200190815260200160002060009054906101000a900460ff169050919050565b606060058054600181600116156101000203166002900480601f016020809104026020016040519081016040528092919081815260200182805460018160011615610100020316600290048015610c345780601f10610c0957610100808354040283529160200191610c34565b820191906000526020600020905b815481529060010190602001808311610c1757829003601f168201915b5050505050905090565b60006002600083815260200190815260200160002060009054906101000a900473ffffffffffffffffffffffffffffffffffffffff169050919050565b6000610c86826111d9565b90508073ffffffffffffffffffffffffffffffffffffffff168373ffffffffffffffffffffffffffffffffffffffff1614151515610cc357600080fd5b8073ffffffffffffffffffffffffffffffffffffffff163373ffffffffffffffffffffffffffffffffffffffff161480610d035750610d0281336118d2565b5b1515610d0e57600080fd5b826002600084815260200190815260200160002060006101000a81548173ffffffffffffffffffffffffffffffffffffffff021916908373ffffffffffffffffffffffffffffffffffffffff160217905550818373ffffffffffffffffffffffffffffffffffffffff168273ffffffffffffffffffffffffffffffffffffffff167f8c5be1e5ebec7d5bd14f71427d1e84f3dd0314c0f7b2291e5b200ac8c7c3b92560405160405180910390a4505050565b6000600980549050905090565b6301ffc9a77c01000000000000000000000000000000000000000000000000000000000281565b610dfe3382611cf4565b1515610e0957600080fd5b600073ffffffffffffffffffffffffffffffffffffffff168373ffffffffffffffffffffffffffffffffffffffff1614151515610e4557600080fd5b600073ffffffffffffffffffffffffffffffffffffffff168273ffffffffffffffffffffffffffffffffffffffff1614151515610e8157600080fd5b610e8b8382611d89565b610e958382611e8c565b610e9f8282612048565b808273ffffffffffffffffffffffffffffffffffffffff168473ffffffffffffffffffffffffffffffffffffffff167fddf252ad1be2c89b69c2b068fc378daa952ba7f163c4a11628f55a4df523b3ef60405160405180910390a4505050565b6000610f0a83611257565b82101515610f1757600080fd5b600760008473ffffffffffffffffffffffffffffffffffffffff1673ffffffffffffffffffffffffffffffffffffffff16815260200190815260200160002082815481101515610f6357fe5b9060005260206000200154905092915050565b610f9283838360206040519081016040528060008152506114c6565b505050565b610fa0836111d9565b73ffffffffffffffffffffffffffffffffffffffff163373ffffffffffffffffffffffffffffffffffffffff16141515610fd957600080fd5b6010600084815260200190815260200160002060008360ff1681526020019081526020016000205460001916816040518082805190602001908083835b60208310151561103b5780518252602082019150602081019050602083039250611016565b6001836020036101000a03801982511681845116808217855250505050505090500191505060405180910390206000191614151561107857600080fd5b7f2e44610d47342face6149324d91b807a80060a30160ebdea2f6f6fbb5061d997838383604051808481526020018360ff1660ff16815260200180602001828103825283818151815260200191508051906020019080838360005b838110156110ee5780820151818401526020810190506110d3565b50505050905090810190601f16801561111b5780820380516001836020036101000a031916815260200191505b5094505050505060405180910390a1505050565b6000806001600084815260200190815260200160002060009054906101000a900473ffffffffffffffffffffffffffffffffffffffff169050600073ffffffffffffffffffffffffffffffffffffffff168173ffffffffffffffffffffffffffffffffffffffff161415915050919050565b60006111ab610dc0565b821015156111b857600080fd5b6009828154811015156111c757fe5b90600052602060002001549050919050565b6000806001600084815260200190815260200160002060009054906101000a900473ffffffffffffffffffffffffffffffffffffffff169050600073ffffffffffffffffffffffffffffffffffffffff168173ffffffffffffffffffffffffffffffffffffffff161415151561124e57600080fd5b80915050919050565b60008073ffffffffffffffffffffffffffffffffffffffff168273ffffffffffffffffffffffffffffffffffffffff161415151561129457600080fd5b600360008373ffffffffffffffffffffffffffffffffffffffff1673ffffffffffffffffffffffffffffffffffffffff168152602001908152602001600020549050919050565b606060068054600181600116156101000203166002900480601f0160208091040260200160405190810160405280929190818152602001828054600181600116156101000203166002900480156113735780601f1061134857610100808354040283529160200191611373565b820191906000526020600020905b81548152906001019060200180831161135657829003601f168201915b5050505050905090565b611387338261211f565b50565b3373ffffffffffffffffffffffffffffffffffffffff168273ffffffffffffffffffffffffffffffffffffffff16141515156113c557600080fd5b80600460003373ffffffffffffffffffffffffffffffffffffffff1673ffffffffffffffffffffffffffffffffffffffff16815260200190815260200160002060008473ffffffffffffffffffffffffffffffffffffffff1673ffffffffffffffffffffffffffffffffffffffff16815260200190815260200160002060006101000a81548160ff0219169083151502179055508173ffffffffffffffffffffffffffffffffffffffff163373ffffffffffffffffffffffffffffffffffffffff167f17307eab39ab6107e8899845ad3d59bd9653f200f220920489ca2b5937696c3183604051808215151515815260200191505060405180910390a35050565b6114d1848484610df4565b6114dd84848484612176565b15156114e857600080fd5b50505050565b6000806011600086815260200190815260200160002060003373ffffffffffffffffffffffffffffffffffffffff1673ffffffffffffffffffffffffffffffffffffffff16815260200190815260200160002060008560ff1660ff16815260200190815260200160002060009054906101000a900460ff1660ff1614151561157557600080fd5b6010600085815260200190815260200160002060008460ff1681526020019081526020016000205460001916826040518082805190602001908083835b6020831015156115d757805182526020820191506020810190506020830392506115b2565b6001836020036101000a038019825116818451168082178552505050505050905001915050604051809103902060001916141561170a5760016011600086815260200190815260200160002060003373ffffffffffffffffffffffffffffffffffffffff1673ffffffffffffffffffffffffffffffffffffffff16815260200190815260200160002060008560ff1660ff16815260200190815260200160002060006101000a81548160ff021916908360ff1602179055507f9a3f7050b48f425d1db73fd1f37fe83c8c57e1d42baa0c4b9b5043bc1f34ba67338585604051808473ffffffffffffffffffffffffffffffffffffffff1673ffffffffffffffffffffffffffffffffffffffff1681526020018381526020018260ff168152602001935050505060405180910390a1611802565b60026011600086815260200190815260200160002060003373ffffffffffffffffffffffffffffffffffffffff1673ffffffffffffffffffffffffffffffffffffffff16815260200190815260200160002060008560ff1660ff16815260200190815260200160002060006101000a81548160ff021916908360ff1602179055507f6cdd98824d999239f5344bbcbf93abceab2def1821bfe0d331adcbace80919de338585604051808473ffffffffffffffffffffffffffffffffffffffff1673ffffffffffffffffffffffffffffffffffffffff1681526020018381526020018260ff168152602001935050505060405180910390a15b9392505050565b60606118148261112f565b151561181f57600080fd5b600b60008381526020019081526020016000208054600181600116156101000203166002900480601f0160208091040260200160405190810160405280929190818152602001828054600181600116156101000203166002900480156118c65780601f1061189b576101008083540402835291602001916118c6565b820191906000526020600020905b8154815290600101906020018083116118a957829003601f168201915b50505050509050919050565b6000600460008473ffffffffffffffffffffffffffffffffffffffff1673ffffffffffffffffffffffffffffffffffffffff16815260200190815260200160002060008373ffffffffffffffffffffffffffffffffffffffff1673ffffffffffffffffffffffffffffffffffffffff16815260200190815260200160002060009054906101000a900460ff16905092915050565b611971338383610f76565b5050565b61197e846111d9565b73ffffffffffffffffffffffffffffffffffffffff163373ffffffffffffffffffffffffffffffffffffffff161415156119b757600080fd5b806010600086815260200190815260200160002060008560ff16815260200190815260200160002081600019169055507f46fde08e121616054793ffcd8cc4847f5b4de86b9de9b498ae38384c418a7752848484604051808481526020018360ff1660ff16815260200180602001828103825283818151815260200191508051906020019080838360005b83811015611a5d578082015181840152602081019050611a42565b50505050905090810190601f168015611a8a5780820380516001836020036101000a031916815260200191505b5094505050505060405180910390a150505050565b611aab33600c5461211f565b34600d6000600c5481526020019081526020016000208190555080600f6000600c548152602001908152602001600020819055507f3e40a8f3a7981dd51f9393d90812cfa6557c89048e72ec451de836b92052874f600c546040518082815260200191505060405180910390a16001600c5401600c8190555050565b6000600190505b60058160ff16111515611bce5760016011600084815260200190815260200160002060003373ffffffffffffffffffffffffffffffffffffffff1673ffffffffffffffffffffffffffffffffffffffff16815260200190815260200160002060008360ff1660ff16815260200190815260200160002060009054906101000a900460ff1660ff16141515611bc157600080fd5b8080600101915050611b2e565b600d600083815260200190815260200160002054600f600084815260200190815260200160002054600e6000858152602001908152602001600020540111151515611c1857600080fd5b7fc9f63ef5cfa4c96e87c58ee8220310a4e89a25f80321a3c3ec3fc76f72578c0833600f600085815260200190815260200160002054604051808373ffffffffffffffffffffffffffffffffffffffff1673ffffffffffffffffffffffffffffffffffffffff1681526020018281526020019250505060405180910390a13373ffffffffffffffffffffffffffffffffffffffff166108fc600f6000858152602001908152602001600020549081150290604051600060405180830381858888f19350505050158015611cef573d6000803e3d6000fd5b505050565b600080611d00836111d9565b90508073ffffffffffffffffffffffffffffffffffffffff168473ffffffffffffffffffffffffffffffffffffffff161480611d6f57508373ffffffffffffffffffffffffffffffffffffffff16611d5784610c3e565b73ffffffffffffffffffffffffffffffffffffffff16145b80611d805750611d7f81856118d2565b5b91505092915050565b8173ffffffffffffffffffffffffffffffffffffffff16611da9826111d9565b73ffffffffffffffffffffffffffffffffffffffff16141515611dcb57600080fd5b600073ffffffffffffffffffffffffffffffffffffffff166002600083815260200190815260200160002060009054906101000a900473ffffffffffffffffffffffffffffffffffffffff1673ffffffffffffffffffffffffffffffffffffffff16141515611e885760006002600083815260200190815260200160002060006101000a81548173ffffffffffffffffffffffffffffffffffffffff021916908373ffffffffffffffffffffffffffffffffffffffff1602179055505b5050565b6000806000611e9b8585612398565b60086000858152602001908152602001600020549250611f076001600760008873ffffffffffffffffffffffffffffffffffffffff1673ffffffffffffffffffffffffffffffffffffffff168152602001908152602001600020805490506124c790919063ffffffff16565b9150600760008673ffffffffffffffffffffffffffffffffffffffff1673ffffffffffffffffffffffffffffffffffffffff16815260200190815260200160002082815481101515611f5557fe5b9060005260206000200154905080600760008773ffffffffffffffffffffffffffffffffffffffff1673ffffffffffffffffffffffffffffffffffffffff16815260200190815260200160002084815481101515611faf57fe5b9060005260206000200181905550600760008673ffffffffffffffffffffffffffffffffffffffff1673ffffffffffffffffffffffffffffffffffffffff16815260200190815260200160002080548091906001900361200f919061270f565b50600060086000868152602001908152602001600020819055508260086000838152602001908152602001600020819055505050505050565b600061205483836124e0565b600760008473ffffffffffffffffffffffffffffffffffffffff1673ffffffffffffffffffffffffffffffffffffffff168152602001908152602001600020805490509050600760008473ffffffffffffffffffffffffffffffffffffffff1673ffffffffffffffffffffffffffffffffffffffff168152602001908152602001600020829080600181540180825580915050906001820390600052602060002001600090919290919091505550806008600084815260200190815260200160002081905550505050565b612129828261263a565b600980549050600a60008381526020019081526020016000208190555060098190806001815401808255809150509060018203906000526020600020016000909192909190915055505050565b6000806121988573ffffffffffffffffffffffffffffffffffffffff166126e0565b15156121a7576001915061238f565b8473ffffffffffffffffffffffffffffffffffffffff1663150b7a02338887876040518563ffffffff167c0100000000000000000000000000000000000000000000000000000000028152600401808573ffffffffffffffffffffffffffffffffffffffff1673ffffffffffffffffffffffffffffffffffffffff1681526020018473ffffffffffffffffffffffffffffffffffffffff1673ffffffffffffffffffffffffffffffffffffffff16815260200183815260200180602001828103825283818151815260200191508051906020019080838360005b8381101561229c578082015181840152602081019050612281565b50505050905090810190601f1680156122c95780820380516001836020036101000a031916815260200191505b5095505050505050602060405180830381600087803b1580156122eb57600080fd5b505af11580156122ff573d6000803e3d6000fd5b505050506040513d602081101561231557600080fd5b8101908080519060200190929190505050905063150b7a027c0100000000000000000000000000000000000000000000000000000000027bffffffffffffffffffffffffffffffffffffffffffffffffffffffff1916817bffffffffffffffffffffffffffffffffffffffffffffffffffffffff19161491505b50949350505050565b8173ffffffffffffffffffffffffffffffffffffffff166123b8826111d9565b73ffffffffffffffffffffffffffffffffffffffff161415156123da57600080fd5b61242d6001600360008573ffffffffffffffffffffffffffffffffffffffff1673ffffffffffffffffffffffffffffffffffffffff168152602001908152602001600020546124c790919063ffffffff16565b600360008473ffffffffffffffffffffffffffffffffffffffff1673ffffffffffffffffffffffffffffffffffffffff1681526020019081526020016000208190555060006001600083815260200190815260200160002060006101000a81548173ffffffffffffffffffffffffffffffffffffffff021916908373ffffffffffffffffffffffffffffffffffffffff1602179055505050565b60008282111515156124d557fe5b818303905092915050565b600073ffffffffffffffffffffffffffffffffffffffff166001600083815260200190815260200160002060009054906101000a900473ffffffffffffffffffffffffffffffffffffffff1673ffffffffffffffffffffffffffffffffffffffff1614151561254e57600080fd5b816001600083815260200190815260200160002060006101000a81548173ffffffffffffffffffffffffffffffffffffffff021916908373ffffffffffffffffffffffffffffffffffffffff1602179055506125f36001600360008573ffffffffffffffffffffffffffffffffffffffff1673ffffffffffffffffffffffffffffffffffffffff168152602001908152602001600020546126f390919063ffffffff16565b600360008473ffffffffffffffffffffffffffffffffffffffff1673ffffffffffffffffffffffffffffffffffffffff168152602001908152602001600020819055505050565b600073ffffffffffffffffffffffffffffffffffffffff168273ffffffffffffffffffffffffffffffffffffffff161415151561267657600080fd5b6126808282612048565b808273ffffffffffffffffffffffffffffffffffffffff16600073ffffffffffffffffffffffffffffffffffffffff167fddf252ad1be2c89b69c2b068fc378daa952ba7f163c4a11628f55a4df523b3ef60405160405180910390a45050565b600080823b905060008111915050919050565b6000818301905082811015151561270657fe5b80905092915050565b81548183558181111561273657818360005260206000209182019101612735919061273b565b5b505050565b61275d91905b80821115612759576000816000905550600101612741565b5090565b905600a165627a7a72305820dba27360368517aa8adcaf9be4aa30e991b6d78dbb59c21e9b907176b943575c0029",
  "source": "pragma solidity ^0.4.24;\n\nimport \"openzeppelin-solidity/contracts/token/ERC721/ERC721Token.sol\";\n\ncontract MyRinkebyToken is ERC721Token {\n    //An ERC-721 implemention of a Quiz that pays out real money to players.\n\n\n    constructor() ERC721Token(\"MyRinkebyToken\", \"MRT\") public {\n    }\n\n    function mint(uint256 _uid) public\n    {\n        _mint(msg.sender, _uid);\n    }\n\n    \n    uint idCounter = 1;\n\n    mapping (uint256 => uint256) pots; // The total pot for each quiz ID\n    mapping (uint256 => uint256) totalsPaidOut;\n    mapping (uint256 => uint256) prizes;\n    mapping (uint256 => mapping (uint256 => bytes32)) encryptedAnswers; //tokenID=>questionNumber=>encryptedAnswer\n    mapping (uint256 => mapping (address => mapping (uint8 => uint8))) scorecards; //tokenID=>player=>questionNumber=>right/wrong (0=noanswer, 1=right, 2=wrong)\n\n\n\n    event QuestionPosted(uint tokenID, uint8 questionNumber, string question);\n    event AnswerPosted(uint tokenID, uint8 questionNumber, string answer);\n    event QuizCreated(uint tokenID);\n    event debug(bytes32 message);\n\n    function createQuiz (uint _prize) payable {\n        _mint(msg.sender, idCounter);\n        pots[idCounter] = msg.value;\n        prizes[idCounter] = _prize; //pay out a finite prize for each participant. TODO implement pot splitting.\n        emit QuizCreated(idCounter);\n        idCounter = idCounter + 1;\n    }\n\n\n \n\n    function postQuestion(uint tokenID, uint8 questionNumber, string question, bytes32 encryptedAnswer) {    \n        require(msg.sender == ownerOf(tokenID));\n        encryptedAnswers[tokenID][questionNumber] = encryptedAnswer;\n        emit QuestionPosted(tokenID, questionNumber, question);\n\n    }\n\n    event RightAnswer(address player, uint tokenID, uint questionNumber);\n    event WrongAnswer(address player, uint tokenID, uint questionNumber);\n\n    function submitGuess(uint tokenID, uint8 questionNumber, string guess) returns (bool){\n        //TODO implement protection for users to stop them from submitting if there are already more players than the pot can support.\n        require(scorecards[tokenID][msg.sender][questionNumber] == 0);\n        if (keccak256(guess) == encryptedAnswers[tokenID][questionNumber]) {\n            scorecards[tokenID][msg.sender][questionNumber] = 1;\n            emit RightAnswer(msg.sender, tokenID, questionNumber);\n        }\n\n        else {\n            scorecards[tokenID][msg.sender][questionNumber] = 2;\n            emit WrongAnswer(msg.sender, tokenID, questionNumber);\n        }\n\n    }\n\n\n    function postAnswer(uint tokenID, uint8 questionNumber, string answer) {\n      require(msg.sender == ownerOf(tokenID));\n      require(keccak256(answer) == encryptedAnswers[tokenID][questionNumber]);\n      emit AnswerPosted(tokenID, questionNumber, answer);\n    }\n\n    event WINNER(address player, uint payout);\n\n    function payMe(uint tokenID) {\n        for (uint8 question = 1; question <= 5; question++) {\n            require(scorecards[tokenID][msg.sender][question] == 1);\n        }\n        require(totalsPaidOut[tokenID] + prizes[tokenID] <= pots[tokenID]);\n        emit WINNER(msg.sender, prizes[tokenID]);\n        msg.sender.transfer(prizes[tokenID]);\n    }\n\n\n    // Convenience function to get around crappy function overload limitations in Web3\n    function depositToGateway(address _gateway, uint256 _uid) public {\n        safeTransferFrom(msg.sender, _gateway, _uid);\n    }\n}\n\n",
  "sourcePath": "/home/magnus/Documents/hackathon/truffle-dappchain-example/gateway-tutorial/contracts/MyRinkebyToken.sol",
  "compiler": {
    "name": "solc",
    "version": "0.4.24+commit.e67f0147.Emscripten.clang"
  },
  "schemaVersion": "2.0.1",
  "updatedAt": "2018-11-01T16:35:39.527Z"
}